:020000040800F2
:10000000201C0020010100080D380008E130000824
:100010000938000835100008314B000800000000C6
:100020000000000000000000000000000D3D00087E
:100030009910000800000000513C0008DD3F000856
:100040001B0100081B0100081B0100081B01000820
:100050001B0100081B0100081B0100081B01000810
:100060001B0100081B0100081B0100081B01000800
:100070001B0100081B0100081B01000839100008C3
:100080001B0100081B0100081B0100081B010008E0
:100090001B0100081B0100081B0100081B010008D0
:1000A0001B0100081B0100081B0100081B010008C0
:1000B0001B0100081B0100081B0100081B010008B0
:1000C0001B0100081B0100081B0100081B010008A0
:1000D0001B0100081B0100081B0100081B01000890
:1000E0001B0100081B0100081B010008DFF80CD0F1
:1000F00000F044FF00480047716C0008201C0020FD
:100100000648804706480047FEE7FEE7FEE7FEE7B1
:10011000FEE7FEE7FEE7FEE7FEE7FEE751400008E8
:10012000ED000008A0F14101192900D820307047E6
:1001300040EA01039B0703D009E008C9121F08C069
:10014000042AFAD203E011F8013B00F8013B521EE9
:10015000F9D27047D2B201E000F8012B491EFBD260
:1001600070470022F6E710B513460A4604461946C2
:10017000FFF7F0FF204610BD421E12F8013F002B92
:10018000FBD111F8013B02F8013B002BF9D170477C
:1001900010B5044604E00B7800F8013B03B1491C9C
:1001A000521EF8D2204610BD421C10F8011B002937
:1001B000FBD1801A704710B5002200E0521C835C0E
:1001C0008C5CA34201D1002BF8D1D8B2E1B2401A25
:1001D00010BD10B5044600E0401C0378002BFBD195
:1001E00000E0401C521E04D311F8013B0370002BA9
:1001F000F7D100210170204610BD034611F8012BF4
:1002000000F8012B002AF9D11846704730B5054691
:100210000020034600E05B1C934205D2EC5CC85C06
:10022000201A01D1002CF6D130BDF0B480EA0102D1
:10023000D40F4200B2EB410F02D2024608461146EB
:100240004A0042D0C30DDDB2C1F3C752AD1A202D12
:1002500035DAC1F3160141F4000204B15242C5F18E
:10026000200602FA06F12A411044B3EBD05F23D0F6
:10027000C4B1012DA0EBC35009DCF0BC4FF000422B
:1002800002EAC352DBB200F5000000F04CBD4000B2
:1002900000F1807000EBC350A0F1807040EAD17093
:1002A000490009E0490841EAC071A0EBC35000F5DC
:1002B0000000400800EBC350F0BC00F02BBD6142D1
:1002C000012202EB4101001BF6E7F0BC704781F010
:1002D0000041AAE780F00040A7E780EA010210B5DC
:1002E00002F00043400022D04A001FD0010E01EB73
:1002F0001261C0F35600C2F3560240F4000042F40B
:100300000002A0FB022000047F39140400D0401C2E
:1003100050EA124001D44000491EC2B20C0604EB60
:10032000D010401C4008802A02D003E0002010BDFD
:1003300020F00100002900DA0020184310BD30B47D
:1003400080EA010202F0004530F0004221F0004056
:1003500013D090B1C30DD40DC2F31601C0F3160033
:10036000E41A41F4000140F400027D34914201D3CB
:10037000641C00E04900002C02DA30BC0020704709
:100380004FF400000023914201D3891A034340082F
:100390004FEA4101F7D151B1914202D14FF00041F2
:1003A00005E002D24FF0010101E06FF0010103EB23
:1003B000C450284430BC00F0ADBC2DE9FE4F80464F
:1003C00081EA0300C00F0C46009021F0004123F0A9
:1003D0000045B8EB0200A94105D2404621469046AF
:1003E0001C460B46024623F00040104347D0270D21
:1003F000C7F30A00C3F30A510290401A0190402843
:100400006BDAC3F3130040F4801B0098924620B1CE
:100410000023D2EB030A63EB0B0B01985946C0F1A2
:100420004002504600F020FA06460D465046594616
:10043000019A00F038FA10EB08006141002487EAC5
:10044000115284EAE7731A4340D0009A62B3019ACA
:10045000012A4FEA075215DC001B61EB02014FF045
:10046000004202EA0752CDE90042001C41F580112A
:1004700032462B4600F094FC03B0BDE8F08F4046B6
:100480002146F9E7001B61EB0201001C41F58013D6
:1004900000185B412018A2F5001747EB030140EA62
:1004A000D570B6196D4111E06D084FEA360645EA80
:1004B000C0754FEA0752001B61EB0201001C41F5B9
:1004C000801149084FEA30000019514132462B464D
:1004D00003B0BDE8F04F00F054BC0098012240008A
:1004E0000023D0EB020263EBE073009821464FEA51
:1004F000E074B8EB000061EB0401E9E783F000432E
:100500005BE781F0004158E72DE9FE4F81EA0304E3
:1005100004F0004421F0004100944FF0000B23F060
:10052000004350EA01045ED052EA03045BD0C3F3F7
:100530000A54C1F30A552C44A4F2F3340194A0FBED
:100540000254C1F3130141F48011C3F3130343F4C4
:10055000801301FB024400FB034E840A970A44EA1D
:10056000815447EA8357A4FB076802958D0A05FB6F
:1005700007854FEA932C04FB0C542705029D4FEA94
:10058000065847EA1637B5EB08056EEB070C870EE1
:10059000920E47EA811742EA8312A7FB0201B6EBEB
:1005A0000B0164EB00042B0D43EA0C335E1844EBA3
:1005B0001C50DA465146E7FB0201C5F313044FEA2B
:1005C0000B3343EA14534FEA0432019C43EA060317
:1005D000A4F10C040294009CCDE900B400F0E0FB0F
:1005E00003B0BDE8F08F00200146F9E7002801DBE9
:1005F000C0F10040002901DBC1F10041814201D876
:100600000120704700207047002801DBC0F1004046
:10061000002901DBC1F10041814201D20120704774
:1006200000207047002801DBC0F10040002901DBF9
:10063000C1F10041814201D3012070470020704781
:10064000002801DBC0F10040002901DBC1F10041BD
:10065000814201D9012070470020704730B5041E47
:1006600071F1000404DB4FF00044404264EB0101EF
:10067000141E73F1000405DB1C464FF00043524288
:1006800063EB0403101A8B4101D2012030BD00201E
:1006900030BD30B5041E71F1000404DB4FF000449E
:1006A000404264EB0101141E73F1000405DB1C469B
:1006B0004FF00043524263EB0403801A994101D288
:1006C000012030BD002030BDC10F80EAE070084439
:1006D000CA079623002100F026BB9623002211466C
:1006E00000F021BB00F0004220F00040C10DC0F33B
:1006F000160040F400007F2901DA00207047962997
:1007000003DCC1F19601C84001E096398840002A17
:10071000F4D04042704720F00040C10DC0F31600F5
:1007200040F400007F2901DA00207047962903DC9D
:10073000C1F19601C840704796398840704770B53E
:10074000C1F30A5201F000450024C1F3130140F245
:10075000FF3341F480119A4201DA002070BD40F26B
:1007600033439A42A2F2334203DC524200F08BF848
:1007700000E090402C43F1D0404270BD00F00042B8
:1007800030F000400AD0C10D01F56071C0F31600D1
:1007900042EA0151C2084007114370470020014658
:1007A000704701F0004330B421F0004150EA0102EB
:1007B00006D00A0DA2F56072C1F31301002A02DC13
:1007C00030BC00207047440F44EAC104C100E01867
:1007D00030BC00EBC25000F09DBA30B50B4601466C
:1007E00000202022012409E021FA02F59D4205D3D0
:1007F00003FA02F5491B04FA02F52844151EA2F17A
:100800000102F1DC30BD2DE9F05F05460020924683
:100810009B4688460646814640241BE028464146C2
:100820004746224600F02FF853465A46C01A9141D7
:1008300010D311461846224600F016F82D1A67EB21
:1008400001084F4622460120002100F00DF817EB69
:1008500000094E41201EA4F10104DFDC4846314668
:100860002A464346BDE8F09F202A04DB203A00FADE
:1008700002F1002070479140C2F1200320FA03F3F7
:10088000194390407047202A04DB203A21FA02F0F5
:100890000021704721FA02F3D040C2F120029140BA
:1008A000084319467047202A06DBCB17203A41FA45
:1008B00002F043EAE07306E041FA02F3D040C2F1ED
:1008C0002002914008431946704700002DE9FF4F70
:1008D000087883B09946FF2805D0491C2D2804D0FC
:1008E0000024002008E000200BE00124F9E700EBE1
:1008F000800003EB4000491C0B78FF2BF7D104B1BB
:10090000404200230293147819461D462D2C01D035
:100910002B2C04D1521C2D2C13D000240294AA4657
:100920001478FF2C0FD00A25A3FB057801FB058165
:100930004FF0000C03FB0C11521CE3194AEB0101B0
:10094000EEE70124EAE7814453EA010002D019F5F9
:10095000C87F06DA03980021C0E9001107B0BDE89E
:10096000F08F0025AE4E2F46DFF8B882184600F013
:1009700022FBCDE90001B9F1000002DAC9F100045F
:1009800000E004460023A74A1AEB030B42EB045A8B
:1009900012E0E00707D02A46334638464146FFF7C3
:1009A000B3FD074688462A46334610461946FFF7E8
:1009B000ABFD05460E466410002CEAD1DDE90001CE
:1009C000B9F1000F5A46534606DA00F037FA3A46B4
:1009D000434600F033FA05E0FFF796FD3A464346FA
:1009E000FFF792FD029A0AB181F00041039AC2E931
:1009F0000001B3E72DE9FF4F1F468DB0D7E901464F
:100A00004FF0FF382E2045464FF000090B90B96992
:100A10006D1C0E988847396A824688470028F6D1AF
:100A2000BAF1FF3F0AD024F4D064002E11DDBAF1F0
:100A30002B0F08D0BAF12D0F0BD102E0404611B0B8
:100A40008DE744F48064B9696D1C0E98884782462E
:100A5000761E6946600501D52D2000E02B208DF81B
:100A6000000001F1010B0DF1200809E0B9696D1CCE
:100A70000E98884782460F9844F40074761E0560ED
:100A8000002E02DDBAF1300FF0D00B998A453ED12D
:100A900044F0800406E00F99681CA9F1010944F4B0
:100AA00000740860B9696D1C761E0E9888478246EE
:100AB0003028F0D02BE00B998A4505D1200603D4CD
:100AC00044F08004761E18E050460AF08FFE08B30A
:100AD0000DF11302761EAAF1300044F40074934520
:100AE00006D20BF8010B200607D5A9F1010003E09F
:100AF000200602D409F101008146A00502D50F9914
:100B0000681C0860B9696D1C0E9888478246002EE3
:100B1000D1DC53E0002E51DDBAF1650F02D0BAF1FD
:100B2000450F4BD1A00549D5B9696D1C24F440741B
:100B3000761E0E9888478246002E0CDD2B2804D0A6
:100B4000BAF12D0F07D144F48074B9696D1C0E9869
:100B500088478246761EE00501D52D2100E02B2135
:100B600008F8011BCDF82C8021E00DF12901761E3B
:100B700044F4007488450CD2AAF1300010F0FF0054
:100B800088F8000002D10B99884509D908F10108BD
:100B900006E0E00501D5244801E042F20F708146ED
:100BA000B9696D1C0E98884782460F980560002E23
:100BB00004DD50460AF01AFE0028D6D1F9690E98D5
:100BC0008847FF208BF8000088F80000002006907E
:100BD00007904B466A4608A906A8FFF777FEA005CE
:100BE00002D46FF001002AE714F0240F0AD0E007C6
:100BF00014D1DDE906123868031D3B600068C0E9C6
:100C000000120BE0DDE90601FFF7CBFD0146E0072E
:100C100004D13868021D3A600068016028460EE77A
:100C2000000014400000F03FF1D8FFFF426842B1DD
:100C3000016811F8013B23B1521EC0E900121846A9
:100C400070470121C160881E704742685AB1C3686D
:100C5000016843B983688B4205D0491E521CC0E924
:100C60000012002070474FF0FF3070470FB40B00A8
:100C700010B58AB00FA900910E994FF00004234AD5
:100C8000CC60214CCDE9064200D004236FF0004235
:100C9000CDE901321E4A089202466B460020FFF75A
:100CA000A9FE0AB010BC5DF814FBF0B585B007468C
:100CB0004FF0FF300091CDE901011E46002015469E
:100CC0000C4604903B466A46314604A8FFF7CEFF27
:100CD00004990346601825B109B1024600E0224696
:100CE0002A6000290ED0002B02DD0099814209D034
:100CF0000094001BCDE901043B466A46314604A836
:100D0000FFF7B4FF05B0F0BD2D0C00084B0C000838
:100D1000AD0F00080029A8BF7047401C490008BF5C
:100D200020F00100704710B4B0FA80FC00FA0CF01B
:100D300050EA010404BF10BC704749B1CCF1200453
:100D400021FA04F411FA0CF118BF012121430843E0
:100D5000A3EB0C01CB1D4FEA00614FEA102042BF0C
:100D6000002010BC704700EBC35010440029A4BF02
:100D700010BC7047401C490008BF20F0010010BCA7
:100D8000704710B5141E73F1000408DA401C41F1DD
:100D9000000192185B411A4301D120F0010010BDFF
:100DA0002DE9F04D92469B4611B1B1FA81F202E075
:100DB000B0FA80F220329046FFF756FD04460F4607
:100DC00040EA0A0041EA0B0153465A46084313D051
:100DD000114653EA010019D0C8F140025046FFF70E
:100DE00052FD05460E46504659464246FFF73CFD29
:100DF000084305D0012004E020463946BDE8F08DC7
:100E00000020054346EAE0762C4337430A98630501
:100E1000E40AA0EB08000022FD0A44EA47540A3025
:100E200002D500200146E9E7010510196941DDE915
:100E3000084500196941BDE8F04DA2E72DE9F04DE4
:100E400081EA030404F0004B21F0004514464FF002
:100E5000000A23F0004150EA050220D054EA0102C2
:100E60001DD0C5F30A570246C5F31303C1F313009F
:100E7000C1F30A5640F4801543F48013A7EB06082B
:100E8000101BD64608F2FD3873EB050002D308F1BB
:100E9000010801E092185B41B8F1000F03DA00206D
:100EA0000146BDE8F08D00204FF4801106468446CF
:100EB0000EE0171B73EB050705D3121B63EB05034D
:100EC00006434CEA010C49084FEA300092185B4196
:100ED00050EA0107EDD152EA030012D082EA040081
:100EE00083EA0501084305D0101BAB4106D201225D
:100EF000002306E000224FF0004302E06FF0010201
:100F000053101AEB06004CEB085110EB0A0041EBB2
:100F10000B01BDE8F04DFFF734BFC1F30A52C1F336
:100F2000130140F2FF3341F480119A4202DA0020AB
:100F30000146704740F233439A42A2F2334202DC48
:100F40005242FFF7A0BCFFF78FBC000030B5041E73
:100F500071F1000404DB4FF00044404264EB0101F6
:100F6000141E73F1000405DB1C464FF0004352428F
:100F700063EB0403994208BF904230BD1CB5094899
:100F80000090094801900546009C06E0E06840F0AA
:100F9000010394E8070098471034AC42F6D3FFF7FA
:100FA000A9F8000018CD000838CD0008C0B24FF4F1
:100FB000F05100F00DB80EB540F23342029200221B
:100FC000CDE900221346FFF7EBFE03B000BD0000A1
:100FD0007F2801D9002208E0064A02EB5002C00730
:100FE000127800D1120902F00F020120904008404F
:100FF000704700001AC0000830B58C1810F8012B9B
:1010000012F00F0301D110F8013B120906D110F8BC
:10101000012B03E010F8015B01F8015B5B1EF9D1C5
:1010200001E001F8013B521EFBD1A142E6D30020B2
:1010300030BD0000FFE7FEE780B540F24030C2F26D
:10104000000000F033F880BD84B00390029101925B
:1010500000930398C16B026C012090404860009897
:1010600003990968486003984068102809D1FFE790
:101070000198039909688860029803990968C86013
:1010800008E0029803990968886001980399096843
:10109000C860FFE704B070477047000081B0EFF30D
:1010A000108072B60090FFE7FEE7000080B58EB0BA
:1010B0000D900D98C06B00680C900D98006800684A
:1010C0000B900C980D99096CC8404007002875D505
:1010D000FFE79DF82C00400700286FD5FFE70D982B
:1010E000006800688006002807D4FFE70D980168B3
:1010F000086820F004000860FFE70D9800680821E8
:10110000C4F20201884203D1FFE704200A9047E0BD
:101110000D9800681C21C4F20201884203D1FFE748
:101120004020099039E00D9800683021C4F2020196
:10113000884204D1FFE74FF4806008902AE00D98C0
:1011400000684421C4F20201884204D1FFE74FF451
:10115000804007901BE00D9800685821C4F20201FE
:10116000884204D1FFE74FF4802006900CE00D98F0
:1011700001686C22C4F202024FF08060914208BF05
:101180004FF480000690FFE706980790FFE7079866
:101190000890FFE708980990FFE709980A90FFE791
:1011A0000A980421C4F2020108600D98C06A20B1B7
:1011B000FFE70D98C16A8847FFE7B8E00C980D99E2
:1011C000096CC8408007002840F18080FFE79DF847
:1011D0002C008007002879D5FFE70D98006800688B
:1011E000800600280BD4FFE70D980168086820F0FE
:1011F0000A0008600D99012081F82100FFE70D9891
:1012000000680821C4F20201884203D1FFE70220EE
:10121000059047E00D9800681C21C4F20201884245
:1012200003D1FFE72020049039E00D9800683021B9
:10123000C4F20201884204D1FFE74FF4007003902A
:101240002AE00D9800684421C4F20201884204D1CA
:10125000FFE74FF4005002901BE00D980068582102
:10126000C4F20201884204D1FFE74FF4003001903C
:101270000CE00D9801686C22C4F202024FF000707D
:10128000914208BF4FF400100190FFE701980290CF
:10129000FFE702980390FFE703980490FFE70498A4
:1012A0000590FFE705980421C4F202010860FFE7FA
:1012B0000D99002081F82000FFE70D98806A20B189
:1012C000FFE70D98816A8847FFE72FE00C980D999A
:1012D000096CC8400007002827D5FFE79DF82C00BF
:1012E0000007002821D5FFE70D980168086820F065
:1012F0000E0008600D98C26B016C012000FA01F12C
:1013000051600D9988630D9981F82100FFE70D99CF
:10131000002081F82000FFE70D98006B20B1FFE767
:101320000D98016B8847FFE7FFE7FFE7FFE70EB087
:1013300080BD000083B0019000200090019820B98A
:10134000FFE701208DF80B0047E0019908684FF690
:10135000F872CBF6FD7210444CF6CD42CCF6CC427E
:10136000A0FB02026FF0030000EA920008640199FA
:101370000020C4F20200C8630199022081F8210014
:101380000198006800680090009843F6F071884367
:10139000009001994868D1F808C0CB680A6940EA12
:1013A0000C00184310434A6910438A691043C96905
:1013B000014300980843009000980199096808606B
:1013C000019900208863019A012182F82110019976
:1013D00081F820008DF80B00FFE79DF80B0003B0AB
:1013E0007047000080B586B004900391029201938B
:1013F00000208DF80300FFE7049890F820000128F2
:1014000004D1FFE702208DF817004CE00499012079
:1014100081F82000FFE7FFE7049890F821000128F9
:1014200032D1FFE70499022081F8210004990020BD
:10143000886304980168086820F001000860049837
:101440000399029A019BFFF7FFFD0498C06A38B127
:10145000FFE704980168086840F00E0008600CE09F
:1014600004980168086820F0040008600498016886
:10147000086840F00A000860FFE7049801680868FF
:1014800040F00100086009E0FFE70499002081F8BE
:101490002000FFE702208DF80300FFE79DF803001E
:1014A0008DF81700FFE79DF8170006B080BD00001B
:1014B00080B584B0039000F0C5F9029003980190C4
:1014C0000198013048B1FFE740F26410C2F2000019
:1014D0000178019808440190FFE7FFE700F0B2F9B6
:1014E0000299401A0199884201D2FFE7F6E704B059
:1014F00080BD000090B00F900E9100200D900990DB
:10150000FFE70E9800680D99C840002800F07F8121
:10151000FFE70D99012088400C900E9800680C9907
:1015200008400B900B980C99884240F06C81FFE7C3
:101530000E9840680590002851D0FFE705980128D3
:101540003AD0FFE7059802283FD0FFE70598032827
:101550005FD0FFE70598112832D0FFE705981228E1
:1015600038D0FFE705980021C1F21101884236D03A
:10157000FFE705980021C1F2120188422FD0FFE752
:1015800005980021C1F22101884228D0FFE7059883
:101590000021C1F22201884221D0FFE705980021F5
:1015A000C1F2310188421AD0FFE705980021C1F24B
:1015B0003201884213D02FE00E98C06809902CE0C9
:1015C0000E98C0680430099027E00E98C068083073
:1015D000099022E00E98C0680C3009901DE00E982A
:1015E000806818B9FFE70420099011E00E98806820
:1015F000012806D1FFE7082009900C980F9908618F
:1016000005E0082009900C980F994861FFE7FFE773
:1016100003E00020099000E0FFE70B98FF2803D8C3
:10162000FFE70F98049003E00F9804300490FFE761
:10163000049808900B98FF2804D8FFE70D988000C5
:10164000039006E00D996FF01F0000EB81000390FE
:10165000FFE70398079008980068079A0F219140C8
:101660008843099991400843089908600E98C07909
:10167000C006002840F1C680FFE7FFE741F21800EE
:10168000C4F20200016841F001010160006800F04D
:10169000010006900698FFE70D9820F0030008214E
:1016A000C4F2010140580A900D9800F00300810037
:1016B0000F2000FA01F10A9888430A900F9840F62B
:1016C0000001C4F20101884203D1FFE7002002902B
:1016D00026E00F9840F60041C4F20101884203D190
:1016E000FFE70120019018E00F9841F20001C4F2D9
:1016F0000101884203D1FFE7022000900AE00F9920
:1017000041F20042C4F201020420914208BF0320CA
:101710000090FFE700980190FFE701980290FFE733
:1017200002980D9901F00301890000FA01F10A986D
:1017300008430A900A980D9921F003010822C4F287
:10174000010288500E988079C006002809D5FFE76D
:101750000B9A40F20841C4F2010108681043086086
:1017600008E00B9A40F20841C4F201010868904376
:101770000860FFE70E9880798006002809D5FFE70A
:101780000B9A40F20C41C4F2010108681043086052
:1017900008E00B9A40F20C41C4F201010868904342
:1017A0000860FFE70E9880798007002809D5FFE7D9
:1017B0000B9A40F20441C4F201010868104308602A
:1017C00008E00B9A40F20441C4F20101086890431A
:1017D0000860FFE70E988079C00748B1FFE70B9AD1
:1017E00040F20041C4F2010108681043086008E0BB
:1017F0000B9A40F20041C4F201010868904308606E
:10180000FFE7FFE7FFE70D9801300D9079E610B094
:101810007047000082B00190ADF802100198806816
:10182000BDF80210084204D0FFE701208DF8010046
:1018300003E000208DF80100FFE79DF8010002B0F1
:101840007047000041F26C50C2F20000006870471F
:1018500080B58EB00C900C9820B9FFE701208DF870
:10186000370043E10C9890F83D0040B9FFE70C9930
:10187000002081F83C000C9800F042FAFFE70C9938
:10188000242081F83D000C980168086820F00100D0
:1018900008600C980168086840F4004008600C98E3
:1018A0000168086820F40040086000F065FC0A90B8
:1018B0000C98406848F2A061C0F2010188420BD840
:1018C000FFE70A9948F28042C0F21E0200209142CE
:1018D00038BF012009900AE00A9940F60012C0F2D0
:1018E0003D020020914238BF01200990FFE709988E
:1018F000012804D1FFE701208DF83700F6E00A98AF
:101900004DF68361C4F21B31A0FB0110800C0B90DB
:101910000C980068406820F03F000B9908430C9930
:10192000096848600C980068006A20F03F00089041
:101930000C98406848F2A061C0F20101884204D8C6
:10194000FFE70B98013007900EE00B984FF496716B
:10195000484344F6D351C1F26201A0FB01010120CA
:1019600000EB91100790FFE70898079908430C993E
:10197000096808620C980068C0694CF6FF718843DA
:1019800006900C98406848F2A061C0F201018842BC
:101990001FD8FFE70A9801380C9949684900B0FB45
:1019A000F1F001306FF31F30032803D8FFE7042064
:1019B00005900BE00A9801380C9949684900B0FB82
:1019C000F1F001306FF31F300590FFE705980490A8
:1019D0004CE00C98806868B9FFE70A9801380C99C8
:1019E000496801EB4101B0FBF1F001306FF31F30AA
:1019F00003900DE00A9801380C9949681922514367
:101A0000B0FBF1F00130042161F31F300390FFE7D8
:101A10000398000518B9FFE70120029023E00C9815
:101A2000806868B9FFE70A9801380C99496801EBAA
:101A30004101B0FBF1F001306FF31F3001900DE078
:101A40000A9801380C99496819225143B0FBF1F00A
:101A50000130042161F31F300190FFE7019840F449
:101A600000400290FFE702980490FFE7069804996F
:101A700008430C990968C8610C980068006820F058
:101A8000C0000C9B1968DA691B6A1A43104308608E
:101A90000C980068806848F2FF3188430C9A1168FE
:101AA000D36812691A43104388600C980068C068B4
:101AB00020F0FF000C9B19685A699B691A43104378
:101AC000C8600C980168086840F0010008600C9933
:101AD000002008640C9A202182F83D100C990863BC
:101AE0000C9981F83E008DF83700FFE79DF837002C
:101AF0000EB080BD80B588B0DDF828C00690ADF886
:101B000016100492ADF80E30FFF79CFE0290069876
:101B100090F83D00202840F0EB80FFE706980299FE
:101B20006A4611600221C0F210010122192301F05E
:101B3000EBFB20B1FFE702208DF81F00DCE0FFE7A0
:101B4000069890F83C00012804D1FFE702208DF8A8
:101B50001F00D1E00699012081F83C00FFE7FFE774
:101B600006980068006800F00100012807D0FFE730
:101B700006980168086840F001000860FFE70698D1
:101B80000168086820F4006008600699212081F847
:101B90003D000699102081F83E0006990020086457
:101BA000049806994862BDF80E0006994885069883
:101BB000408D0699088506990020CFF6FF70C8620F
:101BC0000698BDF816100A9A029B01F0BDFA20B1E2
:101BD000FFE701208DF81F008EE0FFE70020019055
:101BE0000698006840690190069800688069019035
:101BF0000198FFE7FFE70698008D002860D0FFE717
:101C000006980A99029A01F0ADFC80B1FFE70698A8
:101C1000006C042807D1FFE706980168086840F4C3
:101C200000700860FFE701208DF81F0064E006984F
:101C30000168406A007808610699486A0130486284
:101C40000699488D013848850699088D0138088520
:101C500006980068406900F004010120B0EB910F84
:101C600016D1FFE70698008D90B1FFE7069801684E
:101C7000406A007808610699486A0130486206990E
:101C8000488D013848850699088D01380885FFE799
:101C900006980A99029A01F0E1FA80B1FFE70698E6
:101CA000006C042807D1FFE706980168086840F433
:101CB00000700860FFE701208DF81F001CE09AE724
:101CC00006980168086840F40070086006992020B2
:101CD00081F83D000699002081F83E00FFE7069953
:101CE000002081F83C00FFE700208DF81F0003E092
:101CF00002208DF81F00FFE79DF81F0008B080BD8F
:101D000080B588B00790002006900590049003905D
:101D10000798006845F20041C4F2000188423ED1B4
:101D2000FFE7FFE741F21800C4F20200016841F04A
:101D300008010160006800F0080002900298FFE7C7
:101D40004FF440700390122004900320069040F658
:101D50000040C4F2010003A9FFF7CCFBFFE7042118
:101D6000C4F2010108680190019840F0E060019020
:101D7000019840F00200019001980860FFE7FFE73A
:101D800041F21C00C4F20200016841F4001101603C
:101D9000006800F4001000900098FFE7FFE708B02B
:101DA00080BD000040F26410C2F20000027841F2EF
:101DB0006C51C2F2000108681044086070470000CE
:101DC00080B542F20001C4F20201086840F0100040
:101DD0000860032000F096F80F2000F005F800F0EE
:101DE0003BF8002080BD000080B582B0009040F23A
:101DF0001000C2F20000006840F26411C2F200015B
:101E00000A784FF47A71B1FBF2F1B0FBF1F000F017
:101E100073FD20B1FFE701208DF8070018E000985E
:101E20000F280DD8FFE700994FF0FF30002200F097
:101E30004FF8009840F26811C2F20001086003E018
:101E400001208DF8070003E000208DF80700FFE770
:101E50009DF8070002B080BD83B0FFE741F2180093
:101E6000C4F20200016841F001010160006800F065
:101E7000010002900298FFE7FFE741F21C00C4F264
:101E80000200016841F080510160006800F080505C
:101E900001900198FFE7FFE70421C4F201010868FF
:101EA0000090009820F0E0600090009840F00070F2
:101EB000009000980860FFE703B0704780B582B0DB
:101EC0008DF807009DF9070002F034FE02B080BDD6
:101ED00080B586B08DF8170004910392002002901F
:101EE00002F040FE02909DF91700019002980499BB
:101EF000039A01F08DFC0146019802F03BFE06B00A
:101F000080BD000080B582B00190019802F054FEBF
:101F100002B080BD80B584B002900191029820B9D2
:101F2000FFE701208DF80F001BE1019842F200014C
:101F3000C4F20201096801F00701884216D9FFE7DF
:101F400042F20000C4F20200016821F00701019A88
:101F500011430160006800F007000199884204D035
:101F6000FFE701208DF80F00FBE0FFE70298007803
:101F7000800700282AD5FFE702980078400700284C
:101F800009D5FFE741F20401C4F20201086840F4F8
:101F9000E0600860FFE7029800780007002809D594
:101FA000FFE741F20401C4F20201086840F4605006
:101FB0000860FFE741F20401C4F20201086820F062
:101FC000F000029A926810430860FFE702980078D8
:101FD000C007002860D0FFE70298406801280ED1B2
:101FE000FFE741F20000C4F202000068800300280D
:101FF00004D4FFE701208DF80F00B2E021E0029841
:10200000406802280ED1FFE741F20000C4F202004E
:1020100000688001002804D4FFE701208DF80F003C
:102020009FE00DE041F20000C4F20200006880076A
:10203000002804D4FFE701208DF80F0091E0FFE7AE
:10204000FFE741F20401C4F20201086820F0030036
:10205000029A526810430860FFF7F4FB0090FFE714
:1020600041F20400C4F20200006800F00C00029982
:102070004968B0EB810F0ED0FFE7FFF7E3FB009953
:10208000401A41F28931884204D3FFE703208DF8DA
:102090000F0066E0E4E7FFE7019842F20001C4F2B6
:1020A0000201096801F00701884216D2FFE742F2F7
:1020B0000000C4F20200016821F00701019A1143F7
:1020C0000160006800F007000199884204D0FFE732
:1020D00001208DF80F0044E0FFE7029800784007E8
:1020E00000280CD5FFE741F20401C4F202010868A0
:1020F00020F4E060029AD26810430860FFE702987B
:102100000078000700280DD5FFE741F20401C4F272
:102110000201086820F46050029A126940EAC20085
:102120000860FFE700F04CF841F20401C4F202013C
:102130000968C9B20A094CF25A01C0F60001895C6B
:10214000C84040F21001C2F20001086040F268107D
:10215000C2F200000068FFF747FE00208DF80F0074
:10216000FFE79DF80F0004B080BD000040F21000B2
:10217000C2F200000068704780B5FFF7F7FF41F238
:102180000401C4F202010968C1F302224CF26A019F
:10219000C0F60001895CC84080BD000080B5FFF733
:1021A000E5FF41F20401C4F202010968C1F3C22251
:1021B0004CF26A01C0F60001895CC84080BD000095
:1021C00086B000200590049003900290019041F2A7
:1021D0000400C4F2020000680590059800F00C00AD
:1021E0000146009100283FD0FFE70098042804D062
:1021F000FFE70098082806D037E041F20020C0F23F
:102200007A00019037E00598C0F383414CF27200E8
:10221000C0F60000405C02909DF81600C007C0B1F7
:10222000FFE741F20400C4F202000068C0F340413D
:102230004CF28200C0F60000405C0490029841F22B
:102240000021C0F27A0148430499B0FBF1F00390F9
:1022500007E0029840F60011C0F23D0148430390A8
:10226000FFE70398019006E0FFE741F20020C0F28B
:102270007A000190FFE7019806B0704780B586B0FC
:102280000490049820B9FFE701208DF817002EE391
:1022900004980078C007002800F0AE80FFE741F204
:1022A0000400C4F20200006800F00C00042813D0FF
:1022B000FFE741F20400C4F20200006800F00C00E5
:1022C00008281BD1FFE741F20400C4F202000068B5
:1022D000C003002812D5FFE741F20000C4F202005B
:1022E00000688003002808D5FFE70498406820B9FB
:1022F000FFE701208DF81700F9E27CE0FFE7049882
:102300004068B0F5803F09D1FFE741F20001C4F217
:102310000201086840F48030086032E004984068A8
:1023200068B9FFE741F20001C4F20201086820F435
:1023300080300860086820F48020086020E004985D
:102340004068B0F5A02F0DD1FFE741F20001C4F2C3
:102350000201086840F480200860086840F480307A
:1023600008600CE041F20001C4F20201086820F4A8
:1023700080300860086820F480200860FFE7FFE7ED
:10238000FFE7FFE704984068D0B1FFE7FFF75AFA8C
:102390000390FFE741F20000C4F2020000688003EE
:1023A00000280CD4FFE7FFF74DFA0399401A65287F
:1023B00004D3FFE703208DF8170098E2EAE719E05D
:1023C000FFF740FA0390FFE741F20000C4F2020079
:1023D0000068800300280CD5FFE7FFF733FA039964
:1023E000401A652804D3FFE703208DF817007EE22A
:1023F000EAE7FFE7FFE7FFE7049800788007002897
:1024000040F18D80FFE741F20400C4F20200006851
:1024100010F00C0F13D0FFE741F20400C4F20200E9
:10242000006800F00C00082829D1FFE741F2040001
:10243000C4F202000068C003002820D4FFE741F284
:102440000000C4F2020000688007002809D5FFE7F9
:1024500004980069012804D0FFE701208DF81700D7
:1024600045E241F20001C4F20201086820F0F800E0
:10247000049A526940EAC2000860FFE74EE00498FF
:10248000006958B3FFE70021C4F24221012008602F
:10249000FFF7D8F90390FFE741F20000C4F2020011
:1024A0000068800700280CD4FFE7FFF7CBF90399F9
:1024B000401A032804D3FFE703208DF8170016E223
:1024C000EAE741F20001C4F20201086820F0F800D6
:1024D000049A526940EAC20008601EE00021C4F27A
:1024E000422100200860FFF7ADF90390FFE741F2B9
:1024F0000000C4F202000068800700280CD5FFE746
:10250000FFF7A0F90399401A032804D3FFE703203B
:102510008DF81700EBE1EAE7FFE7FFE7FFE7049834
:1025200000780007002848D5FFE70498806918B3B1
:10253000FFE740F28041C4F2422101200860FFF72A
:1025400081F90390FFE741F22400C4F20200006821
:10255000800700280CD4FFE7FFF774F90399401AAD
:10256000032804D3FFE703208DF81700BFE1EAE753
:10257000012001F0ADFB1FE040F28041C4F2422196
:1025800000200860FFF75EF90390FFE741F22400A6
:10259000C4F202000068800700280CD5FFE7FFF7AF
:1025A00051F90399401A032804D3FFE703208DF85B
:1025B00017009CE1EAE7FFE7FFE70498007840078F
:1025C000002840F1D880FFE700208DF8070041F295
:1025D0001C00C4F202000068C000002813D4FFE70A
:1025E000FFE741F21C00C4F20200016841F0805193
:1025F0000160006800F0805000900098FFE7012023
:102600008DF80700FFE747F20000C4F20000006801
:10261000C005002822D4FFE747F20001C4F2000100
:10262000086840F480700860FFF70CF90390FFE73A
:1026300047F20000C4F200000068C00500280CD476
:10264000FFE7FFF7FFF80399401A652804D3FFE777
:1026500003208DF817004AE1EAE7FFE7FFE7049857
:10266000C068012809D1FFE741F22001C4F202014C
:10267000086840F00100086031E00498C06868B95B
:10268000FFE741F22001C4F20201086820F00100D6
:102690000860086820F0040008601FE00498C06823
:1026A00005280DD1FFE741F22001C4F202010868BC
:1026B00040F004000860086840F0010008600CE089
:1026C00041F22001C4F20201086820F00100086014
:1026D000086820F004000860FFE7FFE7FFE7FFE776
:1026E0000498C068E0B1FFE7FFF7ACF80390FFE79C
:1026F00041F22000C4F202000068800700280ED4D6
:10270000FFE7FFF79FF80399401A41F289318842A9
:1027100004D3FFE703208DF81700E8E0E8E71BE0AB
:10272000FFF790F80390FFE741F22000C4F20200A7
:102730000068800700280ED5FFE7FFF783F80399AC
:10274000401A41F28931884204D3FFE703208DF813
:102750001700CCE0E8E7FFE79DF80700012809D162
:10276000FFE741F21C01C4F20201086820F080502A
:102770000860FFE7FFE70498C069002800F0B38015
:10278000FFE741F20400C4F20200006800F00C0010
:10279000082800F08280FFE70498C06902285CD115
:1027A000FFE76021C4F2422100200860FFF74AF8E9
:1027B0000390FFE741F20000C4F2020000688001CC
:1027C00000280CD5FFE7FFF73DF80399401A0328CE
:1027D00004D3FFE703208DF8170088E0EAE70498A8
:1027E000006AB0F5803F0CD1FFE741F20401C4F26A
:1027F0000201086820F40030049A926810430860CF
:10280000FFE741F20401C4F20201086820F47410E9
:10281000049B1A6A5B6A1A43104308606021C4F281
:10282000422101200860FFF70DF80390FFE741F215
:102830000000C4F202000068800100280CD4FFE709
:10284000FFF700F80399401A032804D3FFE7032099
:102850008DF817004BE0EAE71EE06021C4F2422148
:1028600000200860FEF7EEFF0390FFE741F2000052
:10287000C4F202000068800100280CD5FFE7FEF7D3
:10288000E1FF0399401A032804D3FFE703208DF8E2
:1028900017002CE0EAE7FFE724E00498C06901286C
:1028A00004D1FFE701208DF8170020E041F2040079
:1028B000C4F2020000680290029800F4803004998B
:1028C000096A884208D1FFE7029800F47010049961
:1028D000496A884204D0FFE701208DF8170006E01E
:1028E000FFE7FFE7FFE700208DF81700FFE79DF8FF
:1028F000170006B080BD000080B582B0019001983D
:1029000001F042FB02B080BD85B003900291FFE769
:10291000039890F83C00012804D1FFE702208DF8CD
:1029200013005BE00399012081F83C00FFE7FFE71B
:102930000399022081F83D000398006840680190E7
:102940000398006880680090019820F07000019062
:102950000298016801980843019001980399096859
:1029600048600398006842F60041C4F201018842C1
:1029700018D0FFE703980068B0F1804F12D0FFE74E
:102980000398006840F20041C4F20001884209D077
:10299000FFE70398006840F60001C4F20001884296
:1029A0000ED1FFE7009820F0800000900298416867
:1029B0000098084300900098039909688860FFE731
:1029C0000399012081F83D00FFE70399002081F879
:1029D0003C00FFE700208DF81300FFE79DF813008F
:1029E00005B0704780B586B0059000200490039034
:1029F0000290019005980068B0F1804F1CD1FFE76C
:102A0000FFE741F21800C4F20200016841F004013E
:102A10000160006800F0040000900098FFE70320C8
:102A2000019002200290049040F60000C4F20100E0
:102A300001A9FEF75FFDFFE706B080BD80B586B057
:102A400004900391029200208DF80700FFE704989C
:102A500090F83C00012804D1FFE702208DF8170010
:102A600089E00499012081F83C00FFE7FFE7029824
:102A700000900C2800F270800099DFE801F0076DEB
:102A80006D6D206D6D6D3A6D6D6D5300049800682D
:102A9000039901F07FFB04980168886940F0080001
:102AA000886104980168886920F0040088610398AF
:102AB00002690498016888691043886150E00498AD
:102AC0000068039901F0CEFB04980168886940F41E
:102AD0000060886104980168886920F480608861DA
:102AE0000398026904980168886940EA02208861B5
:102AF00036E004980068039901F020FC049801680E
:102B0000C86940F00800C86104980168C86920F0ED
:102B10000400C8610398026904980168C8691043F9
:102B2000C8611DE004980068039901F073FC0498E3
:102B30000168C86940F40060C86104980168C86908
:102B400020F48060C8610398026904980168C8692C
:102B500040EA0220C86103E001208DF80700FFE78A
:102B6000FFE70499002081F83C00FFE79DF807008B
:102B70008DF81700FFE79DF8170006B080BD000034
:102B800080B582B00090009820B9FFE701208DF851
:102B900007003FE0009890F83D0040B9FFE700993A
:102BA000002081F83C00009800F038F8FFE7009919
:102BB000022081F83D00009951F8040B01F04AFA17
:102BC0000099012081F84600FFE70099012081F873
:102BD0003E00009981F83F00009981F8400000997B
:102BE00081F84100FFE7FFE70099012081F84200EA
:102BF000009981F84300009981F84400009981F818
:102C00004500FFE70099012081F83D0000208DF884
:102C10000700FFE79DF8070002B080BD82B0019079
:102C200001980068B0F1804F10D1FFE7FFE741F253
:102C30001C00C4F20200016841F00101016000685B
:102C400000F0010000900098FFE7FFE702B0704736
:102C500080B58AB008900791079828B9FFE70898CF
:102C600090F83E0005901CE00798042805D1FFE786
:102C7000089890F83F00049010E00798082805D1C4
:102C8000FFE7089890F84000039004E0089890F857
:102C900041000390FFE703980490FFE70498059034
:102CA000FFE70598012804D0FFE701208DF82700F1
:102CB0007AE0079828B9FFE70899022081F83E00DA
:102CC0001EE00798042806D1FFE70899022081F842
:102CD0003F00029012E00798082806D1FFE7089904
:102CE000022081F84000019005E00899022081F857
:102CF00041000190FFE701980290FFE70298FFE78B
:102D0000089800680799012201F028FA08980068DD
:102D100042F60041C4F20101884207D1FFE708985A
:102D20000168486C40F400404864FFE70898006878
:102D300042F60041C4F20101884218D0FFE708982A
:102D40000068B0F1804F12D0FFE70898006840F2A9
:102D50000041C4F20001884209D0FFE708980068EA
:102D600040F60001C4F20001884212D1FFE7089842
:102D70000068806800F0070006900698062807D0D3
:102D8000FFE708980168086840F001000860FFE765
:102D900006E008980168086840F001000860FFE755
:102DA00000208DF82700FFE79DF827000AB080BDBE
:102DB00082B00190ADF8021002B0704781B000906F
:102DC00001B0704780B582B00090009820B9FFE74D
:102DD00001208DF8070040E00098806908B1FFE706
:102DE00000E0FFE7009890F8410040B9FFE7009944
:102DF000002081F84000009800F034F8FFE70099C7
:102E0000242081F8410000980168C86820F400502F
:102E1000C860009801F03AFD00980168086920F444
:102E20009040086100980168486920F02A004861D4
:102E300000980168C86840F40050C86000990020FC
:102E40004864009A202182F84110009A82F84210CA
:102E5000009948638DF80700FFE79DF8070002B06E
:102E600080BD000080B58CB00B9000200A900990C6
:102E7000089007900B98006843F60001C4F2010126
:102E800088425ED1FFE7FFE741F21800C4F202007A
:102E9000016841F480410160006800F480400690C0
:102EA0000698FFE7FFE741F21800C4F2020001684C
:102EB00041F004010160006800F0040005900598ED
:102EC000FFE74FF4007007900220089003200A905B
:102ED00040F60000C4F20100019007A90291FEF73C
:102EE00009FB019802994FF4806207920022039235
:102EF00008920992FEF7FEFA039940F24030C2F2BE
:102F0000000004905822C4F2020202604160816015
:102F10008022C2600161416120228261C161FEF7AD
:102F200009FA18B1FFE7FEF7B9F8FFE7FFE70B98DA
:102F300040F24031C2F20001C1630B984862FFE7E2
:102F4000FFE70CB080BD000080B584B00290019115
:102F5000ADF80220029890F84200202817D1FFE730
:102F6000019820B1FFE7BDF8020020B9FFE701207A
:102F70008DF80F000FE00299002008630298019974
:102F8000BDF8022001F0E0FC8DF80F0003E0022004
:102F90008DF80F00FFE79DF80F0004B080BD000022
:102FA00081B0009001B0704781B0009001B07047CF
:102FB00080B58AB008900791ADF81A2005930020DB
:102FC0000290089890F84100202840F08180FFE7A7
:102FD000079820B1FFE7BDF81A0020B9FFE70120EC
:102FE0008DF8270078E0089900204864089921208E
:102FF00081F84100FEF726FC0290BDF81A000899FE
:103000008884BDF81A000899C88408988068B0F5CB
:10301000805F09D1FFE70898006928B9FFE7002021
:1030200004900798039004E0079804900020039010
:10303000FFE7FFE70898C08C78B3FFE70898029B8A
:1030400005996A4611608021002201F003FD40B11C
:10305000FFE70899202081F8410003208DF8270020
:103060003AE0049858B9FFE7039800886FF35F20AF
:1030700008990968486003980230039008E00498B2
:103080000078089909684860049801300490FFE7C7
:103090000899C88C0138C884CCE70898029B059928
:1030A0006A4611604021002201F0D4FC40B1FFE7E4
:1030B0000899202081F8410003208DF827000BE0BB
:1030C0000899202081F8410000208DF8270003E0B6
:1030D00002208DF82700FFE79DF827000AB080BD89
:1030E000FFE7FEE782B0009000980068406900F4B6
:1030F00080610120B0EB912F1ED1FFE7009801689D
:103100006FF480604861009900200863009A2021D4
:1031100082F83D10009981F83E000099086C40F05B
:1031200004000864FFE70099002081F83C00FFE7F5
:1031300001208DF8070003E000208DF80700FFE76D
:103140009DF8070002B0704780B588B00690ADF8D2
:103150001610049203930698C06A029002980828F9
:1031600009D0FFE70298012805D0FFE7029810F583
:10317000803F07D1FFE706980168086840F4807037
:1031800008600DE00698006B122807D1FFE706984B
:103190000168086840F48070086000E0FFE7FFE71E
:1031A0000698049B03996A4611604FF001110022B2
:1031B00000F0AAF880B1FFE7069800680068C00533
:1031C000002805D5FFE706994FF400700864FFE773
:1031D00003208DF81F003CE006980069B0F5804F91
:1031E00008D1FFE7BDF8160000F0FE000699096857
:1031F00008611CE0BDF8160000F44070C009F03012
:103200000699096808610698049A039B0821C0F290
:10321000010100F0FDF820B1FFE701208DF81F004B
:1032200017E09DF81600069909680861FFE70698FF
:10323000049A039B0221C0F2010100F0E9F820B1D9
:10324000FFE701208DF81F0003E000208DF81F002C
:10325000FFE79DF81F0008B080BD000080B584B076
:10326000029001910092FFE702980068406900F027
:1032700004010020B0EB910F3ED1FFE70298FFF769
:1032800031FF20B1FFE701208DF80F0038E00198F1
:10329000013080B3FFE7FEF7D5FA0099401A019993
:1032A000884203D8FFE7019820BBFFE70298006837
:1032B000406900F004010020B0EB910F19D1FFE745
:1032C000029900200863029A202182F83D10029999
:1032D00081F83E000299086C40F020000864FFE786
:1032E0000299002081F83C00FFE701208DF80F00D3
:1032F00006E0FFE7FFE7B7E700208DF80F00FFE7E4
:103300009DF80F0004B080BD80B588B0DDF828C0FE
:10331000069005918DF813200393FFE79DF81600A2
:1033200001280CD1FFE7069800684069BDF8141029
:103330000840401AB0FA80F0400902900BE006986D
:1033400000688069BDF814100840401AB0FA80F097
:1033500040090290FFE702989DF8131088424FD170
:10336000FFE703980130002849D0FFE7FEF76AFA2B
:103370000A99401A0399884203D8FFE70398E8BBEB
:10338000FFE79DF8160001280CD1FFE706980068BA
:103390004069BDF814100840401AB0FA80F04009A6
:1033A00001900BE0069800688069BDF81410084091
:1033B000401AB0FA80F040090190FFE701989DF8AB
:1033C0001310884219D1FFE7069900200863069A76
:1033D000202182F83D10069981F83E000699086C7C
:1033E00040F020000864FFE70699002081F83C00C7
:1033F000FFE701208DF81F0006E0FFE7FFE78DE7FC
:1034000000208DF81F00FFE79DF81F0008B080BD69
:1034100080B588B00690059104920393FFE79DF86C
:10342000160001280CD1FFE7069800684069BDF836
:1034300014100840401AB0FA80F0400902900BE0E6
:10344000069800688069BDF814100840401AB0FA68
:1034500080F040090290FFE7029800287AD1FFE748
:1034600006980068406900F480610120B0EB912F5C
:1034700024D1FFE706980168086840F400700860EE
:10348000069801686FF4806048610699002008631F
:10349000069A202182F83D10069981F83E0006998F
:1034A000086C40F004000864FFE70699002081F8EA
:1034B0003C00FFE701208DF81F004FE00498013029
:1034C000002846D0FFE7FEF7BDF90399401A04999A
:1034D000884203D8FFE70498D0BBFFE79DF81600A9
:1034E00001280CD1FFE7069800684069BDF8141068
:1034F0000840401AB0FA80F0400901900BE00698AD
:1035000000688069BDF814100840401AB0FA80F0D5
:1035100040090190FFE70198C8B9FFE7069900202C
:103520000863069A202182F83D10069981F83E0032
:103530000699086C40F020000864FFE70699002017
:1035400081F83C00FFE701208DF81F0006E0FFE74F
:10355000FFE764E700208DF81F00FFE79DF81F00DC
:1035600008B080BD80B584B0029001910092FFE761
:10357000029800684069C1B20020B0EBD11F3DD174
:10358000FFE70298FFF7AEFD20B1FFE701208DF8BD
:103590000F0037E00198013078B3FFE7FEF752F9EA
:1035A0000099401A0199884203D8FFE7019818BB97
:1035B000FFE7029800684069C1B20020B0EBD11F5C
:1035C00019D1FFE7029900200863029A202182F8AE
:1035D0003D10029981F83E000299086C40F02000ED
:1035E0000864FFE70299002081F83C00FFE7012012
:1035F0008DF80F0006E0FFE7FFE7B9E700208DF840
:103600000F00FFE79DF80F0004B080BD80B582B0C9
:10361000FFE741F21400C4F20200016841F0010129
:103620000160006800F0010001900198FFE70F20A1
:10363000009000221146FEF74BFC0098FEF73EFC7E
:1036400002B080BD80B588B000200790069005903C
:103650000490FFE741F21800C4F20200016841F053
:1036600020010160006800F0200003900398FFE74C
:10367000FFE741F21800C4F20200016841F00401C2
:103680000160006800F0040002900298FFE7FFE785
:1036900041F21800C4F20200016841F00801016023
:1036A000006800F0080001900198FFE74FF47050A7
:1036B0000490002005900220069040F60040C4F2DD
:1036C000010004A9FDF716FF08B080BD80B582B0E7
:1036D00040F28830C2F20000019045F20041C4F28D
:1036E0000001016041F68021C0F206014160002125
:1036F0008160C1604FF48042026141618161C161BA
:103700000162FEF7A5F818B1FFE7FDF7C7FCFFE778
:1037100002B080BD80B58AB0002100910991089166
:10372000079106910591049103910291019140F254
:10373000DC30C2F200004FF080420260232242607F
:10374000816049F63F42C260016180218161FFF7DB
:1037500017FA18B1FFE7FDF7A1FCFFE7002008907A
:10376000099040F2DC30C2F2000008A9FFF7CCF863
:1037700018B1FFE7FDF792FCFFE7602001900022FF
:1037800002920392059240F2DC30C2F2000001A9DD
:10379000FFF754F918B1FFE7FDF780FCFFE740F2AF
:1037A000DC30C2F2000001A90422FFF747F918B18A
:1037B000FFE7FDF773FCFFE740F2DC30C2F20000E8
:1037C000FFF710F90AB080BD80B582B040F2244006
:1037D000C2F20000019043F60001C4F20101016051
:1037E0004FF4E131416000218160C16001610C2230
:1037F00042618161C161FFF7E5FA18B1FFE7FDF7AA
:103800004DFCFFE702B080BDFFE7FEE7FFE7FEE704
:1038100088B0079006910592079800F00700049081
:103820000498C0F10700052803D3FFE704200190A6
:1038300004E00498C0F107000190FFE701980390AD
:1038400004980430062803D8FFE70020009003E026
:10385000049803380090FFE70098029006980399B7
:10386000012202FA01F101390840029B98400599B2
:103870009A40013A1140084308B0704780B584B0BF
:1038800002900191009202980099C86001980099F5
:103890000861009890F8480028B9FFE7009800F008
:1038A0004FF9039004E0009800F038F80390FFE728
:1038B000039804B080BD000080B584B002900191EF
:1038C0000198B0F8500018B9FFE70298039021E082
:1038D000029820F00040009000980199496CFCF794
:1038E000A1FE18B9FFE70020039013E00298002121
:1038F000FCF77CFE38B9FFE702980199496CFCF7A8
:10390000E6FC039006E002980199496CFCF78DFCF7
:103910000390FFE7039804B080BD000080B58CB031
:103920000B900B990491C8680969FCF7D0FC0499C5
:1039300048610B994869FFF7BFFF0B9948610B99E4
:103940000868059048698969FCF7C1FC014605983B
:10395000FCF7C3FC09900B99486900F0AFF838B147
:10396000FFE70B9948684969FCF7B7FC089002E04B
:1039700000200890FFE70B98416900918169C069B8
:1039800001900846FCF751FC01460098FCF79FFCAB
:103990000199FCF74AFC06900B9880680699FCF7A1
:1039A0009CFC079009980899FCF73FFC0799FCF7E5
:1039B0003CFC0A900B980390416B0291006C0A99B1
:1039C000FCF733FC0299FCF730FC039908630B9871
:1039D00000F094F80B998869C8610B99486988616F
:1039E0000B99086B08640B98006B0CB080BD00004D
:1039F00082B001908DF803100199002008600199B0
:103A00004860019988600199C8600199086101992D
:103A10004861019988610199C86101990862019919
:103A200048F20002C4F23B524A62019B48F2000194
:103A3000CCF23B519962019BD862019B1863019BB8
:103A40005863019B9A63019AD163019908640199B3
:103A500048649DF80310019A82F848100199A1F872
:103A60004A000199A1F84C000199A1F84E00019972
:103A7000A1F8500002B0704780B582B00190019863
:103A8000B0F84C0008B9FFE716E00199086A496AE6
:103A9000FCF7ACFD20B9FFE70199486A08620BE02A
:103AA0000199086A896AFCF7BDFD20B9FFE7019911
:103AB000886A0862FFE7FFE702B080BD80B584B086
:103AC000029001910198B0F84A0020B9FFE7012067
:103AD000ADF80E000EE0029820F000400090009833
:103AE0000199C96AFCF790FD002818BF0120ADF8C4
:103AF0000E00FFE7BDF80E0004B080BD80B582B0B7
:103B000001900198B0F84E0008B9FFE716E001995E
:103B1000086B896BFCF76AFD20B9FFE70199886B98
:103B200008630BE00199086BC96BFCF77BFD20B9BA
:103B3000FFE70199C86B0863FFE7FFE702B080BDAC
:103B400080B588B0079007990291C8680969FCF7A9
:103B5000BEFB0299486107994869FFF7ADFE0799D6
:103B60004861079908684969FCF7B7FB069007990F
:103B70004869FFF7A3FF60B1FFE70798019041692B
:103B8000006AFCF752FB019908620798FFF774FF7F
:103B9000FFE707994868096AFCF79FFB05900799BA
:103BA00048698969FCF793FB03900798806803993B
:103BB000FCF793FB049006980599FCF736FB0499F3
:103BC000FCF733FB07990091496BFCF72EFB00993A
:103BD00008630798FFF792FF07994869886107987B
:103BE000006B08B080BD000080B582B001900091EC
:103BF00000980199486400980021FCF721FD0028F5
:103C000018BF01200199A1F8500002B080BD00004A
:103C100083B0029001910092019802998863009804
:103C20000299C86302990120A1F84E0003B07047C1
:103C300084B0039002910192009302980399086066
:103C400001980399486000980399886004B0704710
:103C50007047000082B08DF807000091009800883E
:103C600040F2FE7188422CDCFFE79DF80700009BC4
:103C70001A88511C198040F66751C2F2000188541D
:103C80009DF807007D281BD1FFE740F66750C2F280
:103C9000000000787B280FD1FFE70098028840F6EB
:103CA0006751C2F200010020885440F66651C2F20A
:103CB000000101200870FFE7009900200880FFE75D
:103CC00003E0009900200880FFE702B07047000081
:103CD00082B00190019840F21001C2F2000109681F
:103CE000C90844F6D352C1F26202A1FB022189093C
:103CF00048430090FFE700BFFFE70098411E009196
:103D00000028F8D1FFE702B07047000070470000BC
:103D100080B582B040F2DC30C2F200000190002198
:103D2000FEF796FF01980421FEF792FF02B080BDD6
:103D300080B588B0079006910020C4F2400005903D
:103D4000079820F000400599FCF750FC88B9FFE780
:103D500007980021FCF74AFC18B9FFE70598029084
:103D600004E0059880F000400290FFE70298079079
:103D7000FFE7069820F000400599FCF737FC88B96A
:103D8000FFE706980021FCF731FC18B9FFE705981A
:103D9000019004E0059880F000400190FFE7019851
:103DA0000690FFE740F27010C2F200000068079929
:103DB000FCF73BFA049040F20C00C2F200000068ED
:103DC0000699FCF732FA0390049800F013F8039870
:103DD00000F074F808B080BD80B5002000F00AF84B
:103DE0000020C4F2A01000F069F84FF4FA70FDF75B
:103DF0005FFB80BD80B586B0059005980021C4F2B8
:103E00003431FCF7F3FB28B9FFE70020C4F234306B
:103E1000029012E005980021CCF23431FCF702FC4C
:103E200028B9FFE70020CCF23430019002E0059879
:103E30000190FFE701980290FFE70298059005982E
:103E40000021C4F23431FCF7F0F90021C4F2B4319E
:103E5000FCF775FA049004980021C4F2FA4100912D
:103E6000FCF73BFA0099FCF7E0F94FF07C51FCF7C6
:103E7000DCF9FCF750FC0390039800097C2804D877
:103E8000FFE74FF4FA600390FFE70398B0F57A6F0D
:103E900004D9FFE74FF47A600390FFE7039840F2FC
:103EA000DC31C2F2000109684863059840F27011E4
:103EB000C2F20001086006B080BD000080B588B085
:103EC000079007980021C4F23431FCF78FFB28B922
:103ED000FFE70020C4F23430039012E0079800217D
:103EE000CCF2F011FCF79EFB28B9FFE70020CCF2E2
:103EF000F010029002E007980290FFE7029803900A
:103F0000FFE7039807900020C4F25230069007980C
:103F10000021C4F2F011FCF788F90699FCF70FFABA
:103F2000059005980021C4F2FA410191FCF7D5F9FA
:103F30000199FCF77AF94FF07C51FCF776F9FCF720
:103F4000EAFB0490049800097C2804D8FFE74FF4AA
:103F5000FA600490FFE70498B0F57A6F04D9FFE7A0
:103F60004FF47A600490FFE7049840F2DC31C2F22B
:103F7000000109688863079840F20C01C2F2000151
:103F8000086008B080BD000080B582B00090009845
:103F90000138B0F1807F03D3FFE70120019019E0E1
:103FA000009801384EF21401CEF2000108604FF083
:103FB000FF300F2100F0DEFD4EF21801CEF20001BD
:103FC000002008604EF21002CEF2000207211160BC
:103FD0000190FFE7019802B080BD000080B5FDF7B9
:103FE000E1FE80BD80B590B006A800902821FCF7C6
:103FF000B8F8009800230593049303930293019368
:10400000012206924FF48031079108930A9202220E
:104010000D920E914FF4E0110F91FEF72FF918B1A8
:10402000FFE7FDF73BF8FFE70F2001900221029127
:10403000002003904FF480620492059001A8FDF7E0
:1040400069FF18B1FFE7FDF729F8FFE710B080BD61
:104050007047000083B002900191029800680090C0
:10406000029842F60041C4F20101884215D0FFE7F0
:104070000298B0F1804F10D0FFE7029840F2004163
:10408000C4F20001884208D0FFE7029840F6000120
:10409000C4F2000188420AD1FFE7009820F07000C6
:1040A000009001984168009808430090FFE702984B
:1040B00042F60041C4F20101884215D0FFE70298A0
:1040C000B0F1804F10D0FFE7029840F20041C4F2F7
:1040D0000001884208D0FFE7029840F60001C4F2D0
:1040E000000188420AD1FFE7009820F44070009058
:1040F0000198C168009808430090FFE7009820F0FD
:10410000800001994969084300900098029908606D
:10411000019880680299C8620198006802998862D3
:10412000029842F60041C4F20101884205D1FFE73E
:104130000198006902990863FFE70299012048612C
:1041400002980069C00730B1FFE70299086920F0C2
:1041500001000861FFE703B07047000084B00390DE
:1041600002910192029800F01F0101208840009006
:10417000009A0399086A904308620198029901F035
:104180001F0100FA01F20399086A1043086204B0A3
:104190007047000085B0049003910498006A019074
:1041A0000499086A20F001000862049840680090B1
:1041B000049880690290029820F0700002900298A2
:1041C00020F00300029003980168029808430290CF
:1041D000019820F00200019003988168019808433B
:1041E0000190049842F60041C4F2010188420ED1C8
:1041F000FFE7019820F0080001900398C16801983A
:1042000008430190019820F004000190FFE7049812
:1042100042F60041C4F20101884213D1FFE7009841
:1042200020F480700090009820F4007000900398B3
:1042300041690098084300900398816900980843F9
:104240000090FFE7009804994860029804998861FB
:10425000039840680499486301980499086205B07E
:104260007047000085B0049003910498006A0190A3
:104270000499086A20F010000862049840680090D1
:10428000049880690290029820F4E040029002981D
:1042900020F44070029003980168029840EA0120DF
:1042A0000290019820F02000019003988168019805
:1042B00040EA01100190049842F60041C4F2010165
:1042C00088420FD1FFE7019820F080000190039809
:1042D000C168019840EA01100190019820F0400067
:1042E0000190FFE7049842F60041C4F201018842C0
:1042F00015D1FFE7009820F480600090009820F42A
:104300000060009003984169009840EA81000090A5
:1043100003988169009840EA81000090FFE70098C7
:104320000499486002980499886103984068049948
:10433000886301980499086205B0704785B00490BD
:1043400003910498006A01900499086A20F480702F
:1043500008620498406800900498C069029002982E
:1043600020F070000290029820F003000290039861
:104370000168029808430290019820F400700190AF
:1043800003988168019840EA01200190049842F660
:104390000041C4F2010188420FD1FFE7019820F4E7
:1043A000006001900398C168019840EA01200190E3
:1043B000019820F480600190FFE7049842F60041E4
:1043C000C4F20101884215D1FFE7009820F4805023
:1043D0000090009820F400500090039841690098E4
:1043E00040EA0110009003988169009840EA0110AA
:1043F0000090FFE700980499486002980499C8610A
:10440000039840680499C86301980499086205B04C
:104410007047000085B0049003910498006A0190F1
:104420000499086A20F4805008620498406800905B
:104430000498C0690290029820F4E040029002982B
:1044400020F44070029003980168029840EA01202D
:104450000290019820F4005001900398816801981F
:1044600040EA01300190049842F60041C4F2010193
:1044700088420BD1FFE7009820F480400090039819
:104480004169009840EA81100090FFE70098049984
:10449000486002980499C8610398406804990864C8
:1044A00001980499086205B07047000080B584B097
:1044B0000390002002900398406A019001980068E0
:1044C0004069C0B2C0090290019890F841002128CB
:1044D0000AD1FFE7029838B1FFE701990020C884AC
:1044E000019800F00DF9FFE7019800684069C0F3FA
:1044F00080100290019890F8420022280AD1FFE72C
:10450000029838B1FFE701990020C885019800F0B2
:10451000ADF8FFE70199486C40F01000486401983D
:10452000FEF74CFC04B080BD80B586B005900598C0
:10453000406A0490059800680068800600285AD4F4
:10454000FFE704990020C885FFE7FFE704980068AB
:1045500050E8030F20F480700390FFE7039904985C
:10456000026842E803100028F0D1FFE7FFE7FFE709
:10457000FFE70498006850E8050F20F00100029062
:10458000FFE702990498026842E805100028F0D17C
:10459000FFE7FFE7FFE7FFE70498006850E8050F33
:1045A00020F040000190FFE701990498026842E87A
:1045B00005100028F0D1FFE7FFE70499202081F8DB
:1045C00042000498006B012814D1FFE7FFE7FFE7E2
:1045D0000498006850E8030F20F010000090FFE7F7
:1045E00000990498026842E803100028F0D1FFE720
:1045F000FFE7FFE7FFE70499002048630498006B9A
:10460000012805D1FFE70498818DFEF7D1FB03E077
:104610000498FEF7C5FCFFE706B080BD80B582B008
:1046200001900198406A0090009901204863009829
:10463000006B012806D1FFE70098818D4908FEF73D
:10464000B7FB03E00098FEF7AFFCFFE702B080BDC8
:1046500080B540F22440C2F2000040F23021C2F2A4
:1046600000014FF48072FEF76FFC80BD84B00390B0
:10467000FFE7FFE70398006850E8030F20F490700D
:104680000290FFE702990398026842E803100028AD
:10469000F0D1FFE7FFE7FFE7FFE70398006850E886
:1046A000050F20F001000190FFE7019903980268CF
:1046B00042E805100028F0D1FFE7FFE70398006B00
:1046C000012814D1FFE7FFE7FFE70398006850E8EF
:1046D000030F20F010000090FFE700990398026894
:1046E00042E803100028F0D1FFE7FFE7FFE7039956
:1046F000202081F8420003990020086304B070472D
:1047000082B00190FFE7FFE70198006850E8030FCF
:1047100020F0C0000090FFE700990198026842E88D
:1047200003100028F0D1FFE7FFE70199202081F86E
:10473000410002B07047000080B584B040F22440D0
:10474000C2F20000C06B00684068C0F58070ADF830
:104750000E00BDF80E0040F64A01C2F200010988C1
:10476000884200F09180FFE7BDF80E0040F64A0154
:10477000C2F200010988884230DDFFE7BDF80E0073
:1047800040F64A01C2F200010988401AADF80C0057
:104790000020ADF80A00FFE7BDF80A00BDF80C10D4
:1047A00088421ADAFFE740F64A00C2F200000088A9
:1047B000BDF80A10014440F23020C2F20000405C13
:1047C00040F27411C2F20001FFF744FAFFE7BDF8AE
:1047D0000A000130ADF80A00DEE74DE040F64A007D
:1047E000C2F200000088C0F58070ADF80C00002017
:1047F000ADF80800FFE7BDF80800BDF80C108842CE
:104800001ADAFFE740F64A00C2F200000088BDF85D
:104810000810014440F23020C2F20000405C40F237
:104820007411C2F20001FFF715FAFFE7BDF80800A6
:104830000130ADF80800DEE70020ADF80600FFE724
:10484000BDF80600BDF80E10884214DAFFE7BDF887
:10485000061040F23020C2F20000405C40F27411B9
:10486000C2F20001FFF7F6F9FFE7BDF806000130DC
:10487000ADF80600E4E7FFE7BDF80E0040F64A0198
:10488000C2F200010880FFE704B080BD80B584B0AB
:10489000039003980068006920F44050039A11685F
:1048A000D26810430861039988680A69496910430E
:1048B0000843029003980068C06841F20C61884385
:1048C0000299084303990968C86003980068406921
:1048D00020F44070039A116892691043486103986C
:1048E000006843F60001C4F20101884204D1FFE7E9
:1048F000FDF754FC019003E0FDF73EFC0190FFE75B
:10490000019819214843039A116852689200B0FB3C
:10491000F2FC48F21F52C5F2EB12ACFB0230430925
:10492000642003FB10CC322000EB0C10A0FB020231
:10493000F02000EA521000EB0310C2F343121044BF
:10494000886004B080BD000080B588B007900691F3
:10495000ADF81620069807998862BDF816000799E9
:104960008885079900204864079A222182F842101E
:104970000799CA6B44F22951C0F600019162079968
:10498000CA6B44F21D61C0F60001D1620799CA6B7F
:1049900044F2AD41C0F6000111630799C96B486349
:1049A00006A8049007980168C06B0431049A126845
:1049B000BDF81630FCF716FDFFE7002003900798BE
:1049C00000680068039007980068406803900398A7
:1049D000FFE707980069A0B1FFE7FFE7FFE7079847
:1049E000006850E8030F40F480700290FFE70299DE
:1049F0000798026842E803100028F0D1FFE7FFE7BC
:104A0000FFE7FFE7FFE70798006850E8050F40F071
:104A100001000190FFE701990798026842E805103C
:104A20000028F0D1FFE7FFE7FFE7FFE707980068FE
:104A300050E8050F40F040000090FFE7009907980C
:104A4000026842E805100028F0D1FFE7FFE70020E8
:104A500008B080BD80B586B0DDF820C00490039119
:104A60008DF80B200193FFE7049800680068039914
:104A70000840401AB0FA80F040099DF80B108842B7
:104A80004DD1FFE708980130002847D0FFE7FCF739
:104A9000D9FE0199401A0899884203D8FFE708987F
:104AA00020B9FFE703208DF817003CE00498006868
:104AB000C0684007002830D5FFE7039880282CD035
:104AC000FFE70398402828D0FFE7049800680068B3
:104AD00000F008010120B0EBD10F1DD1FFE7FFE787
:104AE0000020009004980068006800900498006816
:104AF000406800900098FFE70498FFF7B7FD04991D
:104B000008204864FFE70499002081F84000FFE78F
:104B100001208DF8170006E0FFE7FFE7A4E700207B
:104B20008DF81700FFE79DF8170006B080BD000064
:104B3000FFE7FEE781B08DF803009DF90300002830
:104B40000ED4FFE79DF9031001F01F0201209040F1
:104B50004A094EF20011CEF2000141F82200FFE7AF
:104B600001B070474EF60C50CEF200000068C0F362
:104B70000220704782B08DF8070000919DF9070070
:104B800000280AD4FFE7009800019DF907104EF2B3
:104B90000042CEF2000288540BE0009800019DF81C
:104BA000071001F00F014EF61452CEF200028854A5
:104BB000FFE702B07047000083B00290029800F057
:104BC000070000904EF60C51CEF2000108680190EB
:104BD00001984FF6FF02104001900198009A40EAB8
:104BE00002200022C0F2FA5210430190019808609E
:104BF00003B0704782B001900091019818B1FFE7AF
:104C0000009808B9FFE717E0019890F83C000A28DF
:104C100001DBFFE710E00098019991F83C2001EBDF
:104C200082014861019800990861019991F83C005E
:104C3000013081F83C00FFE702B0704780B584B0D6
:104C40000390FCF7FFFD0290029840F27811C2F247
:104C500000010968401A64283BD3FFE703980190DC
:104C6000019840F27C11C2F20001884203D1FFE7B3
:104C700002F086F826E0019840F27C11C2F20001B1
:104C80002C31884203D1FFE702F062F819E0019865
:104C900040F27C11C2F200015831884203D1FFE793
:104CA00002F062F80CE0019840F27C11C2F20001BF
:104CB0008431884203D1FFE702F03EF8FFE7FFE7C7
:104CC000FFE7FFE7029840F27811C2F200010860A6
:104CD000FFE704B080BD000080B582B0019001986C
:104CE0000090009840F27C11C2F20001884203D18A
:104CF000FFE702F045F826E0009840F27C11C2F28E
:104D000000012C31884203D1FFE702F021F819E0BD
:104D1000009840F27C11C2F200015831884203D160
:104D2000FFE702F021F80CE0009840F27C11C2F29B
:104D300000018431884203D1FFE701F0FDFFFFE766
:104D4000FFE7FFE7FFE702B080BD000083B00190FE
:104D5000019820B1FFE70198006818B9FFE700202B
:104D600002903AE0019830B1FFE70198416880680D
:104D7000884203D3FFE7019802902EE0FFE70199F4
:104D80000020009091B1FFE70198426881680020FF
:104D9000914200900AD2FFE7019908688968415C56
:104DA00000202129B8BF01200090FFE70098C0072C
:104DB00028B1FFE70199886801308860DFE7019832
:104DC00041688068884205D1FFE701998868013809
:104DD0008860FFE701980290FFE7029803B07047F0
:104DE00083B002908DF807100092009802999DF808
:104DF000072001EB8201C86003B0704780B584B022
:104E0000039003988168007988478DF80B00039818
:104E1000C07800F00700012805DBFFE70399088848
:104E200001300880FFE79DF80B000399C978B0EBCB
:104E3000D11F1FD0FFE7039AD178012000EBD100EA
:104E400000F0070001F0C70141EAC001D17001285C
:104E50000FDBFFE79DF80B200399C87800F07F0077
:104E600040EAC210C8700399C87800F0C700C87043
:104E7000FFE705E00399C87800F0C700C870FFE7B6
:104E80000398C07800F0070001460191052800F260
:104E90004A810199DFE811F0060033006F00E1005C
:104EA00047011B010398C178C1F38010B0EBD11FFB
:104EB0001DD1FFE70399887800F00F0088700398F0
:104EC000C06820B1FFE70398C1688847FFE70399EE
:104ED000002008800399887800F0F0000130887085
:104EE0000399C87800F0F8000130C87006E0039913
:104EF0008878082262F31F108870FFE719E1039891
:104F0000C178C1F38010B0EBD11F18D0FFE703992F
:104F10008878012262F31F1088700398006920B11D
:104F2000FFE7039801698847FFE70399002008809D
:104F30000399C87800F0F8000230C8701AE00398AE
:104F40000088152815DBFFE703998878052262F3AE
:104F50001F1088700398006A20B1FFE70398016A68
:104F60008847FFE70399C87800F0F8000530C8705B
:104F7000FFE7FFE7DDE00398C178C1F38010B0EBF5
:104F8000D11F30D1FFE70399887800F00F008870B7
:104F90000398C06820B1FFE70398C1688847FFE71E
:104FA0000398807800F00F000F280AD0FFE70399DC
:104FB0008878421C02F00F0200F0F0001044887064
:104FC000FFE70398406920B1FFE7039841698847EC
:104FD000FFE70399002008800399C87800F0F800E3
:104FE0000330C87038E0039800880D2833DBFFE7F2
:104FF0000398807800F00F0001280FD1FFE7039994
:105000008878032262F31F1088700398806920B1AA
:10501000FFE7039881698847FFE716E003988078E7
:1050200000F00F0002280FD1FFE7039988780422CF
:1050300062F31F1088700398C06920B1FFE70398DE
:10504000C1698847FFE7FFE7FFE70399C87800F0E9
:10505000F800C870FFE7FFE76BE00398C178C1F381
:105060008010B0EBD11F24D0FFE70399887801228C
:1050700062F31F1088700398006920B1FFE703985E
:1050800001698847FFE7039800880B280ADCFFE7DF
:105090000399002008800399C87800F0F8000230D6
:1050A000C87005E00399C87800F0F800C870FFE701
:1050B0000CE0039800880D2807DBFFE70399C87808
:1050C00000F0F8000130C870FFE7FFE731E0039817
:1050D000C178C1F38010B0EBD11F0FD1FFE7039966
:1050E0008878062262F31F1088700398406A20B106
:1050F000FFE70398416A8847FFE713E00399887840
:10510000012262F31F1088700398006920B1FFE745
:10511000039801698847FFE70399C87800F0F80011
:10512000C870FFE705E00399C87800F0F800C87080
:10513000FFE704B080BD000080B584B00390029109
:105140008DF807208DF8063003982C21FBF709F81D
:1051500003998878082262F31F10887002980399D7
:1051600088609DF80700B0FA80F042090399C8787A
:1051700000F07F0040EAC210C8709DF80720039934
:10518000C87802F0010200F0BF0040EA8210C87047
:105190009DF806000399087104B080BD83B00190AA
:1051A00040F28430C2F2000000680090FFE70098EF
:1051B00068B1FFE700980199884204D1FFE74FF0FA
:1051C000FF3002900FE00098806A0090EFE740F215
:1051D0008431C2F200010868019A90620198086067
:1051E00000200290FFE7029803B0704780B582B0BC
:1051F00040F28430C2F2000000680190FFE701989D
:1052000040B1FFE70198FFF7F9FDFFE70198806AD9
:105210000190F4E702B080BD80B582B0019000201B
:105220000090FFE70198002846D0FFE7019800684A
:1052300000900198407BC00748B9FFE7019880685B
:1052400028B1FFE701988068FFF7E6FFFFE70198C4
:10525000407BC00780B9FFE70198006960B1FFE7B4
:1052600040F21800C2F200004168019800698847C6
:10527000019900200861FFE70198407B8007002822
:1052800010D4FFE70198006A60B1FFE740F2180010
:10529000C2F2000041680198006A88470199002025
:1052A0000862FFE740F21800C2F20000416801986E
:1052B000884700980190B5E702B080BD80B582B004
:1052C0000190009101980099002201F06DFB02B05D
:1052D00080BD000082B00090009818B9FFE7002060
:1052E000019007E00098007B0838B0FA80F0400990
:1052F0000190FFE7019802B07047000080B582B0CE
:10530000019001980168282088470090009828B1F2
:10531000FFE700982821FAF724FFFFE7009802B082
:1053200080BD000080B582B0019001980022114636
:1053300000F098F802B080BD80B592B010900F9147
:105340000E920D93002002900C900B900A90099001
:10535000089007900690059040F23831C2F20001A3
:1053600008604860109818B1FFE70F9808B9FFE788
:1053700042E0109806900F9807900020089040F2A5
:105380001800C2F200000168426883680C930B9217
:105390000A91FFF7B3FF0590059808B9FFE72BE0E6
:1053A0000598019006A802F069FFFFF7CFFC0146BF
:1053B000019802F025FC08B9FFE71DE00D9878B1CF
:1053C000FFE706A8FFF7C2FC07990898884205D2B4
:1053D000FFE706980899405C08B1FFE70CE0FFE79B
:1053E0000E9830B1FFE70698089908440E990860B6
:1053F000FFE70598119032E0059820B1FFE7059886
:10540000FFF70AFFFFE7109830B3FFE7109803900B
:105410000020049007990898884203D2FFE7089873
:10542000049007E0079820B1FFE70798013804903F
:10543000FFE7FFE70E9830B1FFE7039804990844AF
:105440000E990860FFE740F23831C2F2000103987C
:10545000049A4A600860FFE700201190FFE7119866
:1054600012B080BD80B586B004900391029204987A
:1054700018B9FFE7002005900CE00498FAF794FEB5
:105480000130019004980199039A029BFFF754FFA1
:105490000590FFE7059806B080BD000080B586B096
:1054A00004900498007A20B1FFE74FF07E500590F9
:1054B00031E004984068006803900498C16800696E
:1054C000FAF705FF029002980021FBF78FF848B920
:1054D000FFE702984DF20A71C3F62341FAF7FDFE89
:1054E000059018E0039820F000404CF6CD41C3F63B
:1054F0004C51FAF7F2FE009041F26F21C3F683217E
:105500000191FBF79DF8009902460198002A18BF07
:1055100008460590FFE7059806B080BD80B586B0C7
:1055200004900391049818B1FFE7039818B9FFE7B6
:105530000120059033E004980399884203D1FFE7E6
:10554000002005902BE0FFE704980078FAF7EAFDC9
:10555000029003980078FAF7E5FD01460298884228
:105560000FD1FFE70498007818B9FFE700200590F5
:1055700015E0FFE704980130049003980130039090
:10558000E2E704980078FAF7CDFD019003980078DF
:10559000FAF7C8FD01460198401A0590FFE7059803
:1055A00006B080BD80B584B00290029818B9FFE7BC
:1055B000002003901CE0002001900090FFE700987D
:1055C000029991F83C1088420FDAFFE7029800999F
:1055D00001F010FB20B1FFE7019801300190FFE7D7
:1055E000FFE7009801300090E9E701980390FFE79A
:1055F000039804B080BD000080B582B0019001988E
:1056000008B9FFE717E003F0A1FD019840F22C2153
:10561000C2F200010091086044F6D940C0F60000D3
:1056200044F63D41C0F6000105F05CFE00980068BC
:1056300000F024FFFFE702B080BD000080B588B015
:10564000079040F65000C2F20000029090F844101B
:105650008DF81B1090F846108DF81A104CF29351EB
:10566000C0F6000103F0E8FD0298079903F05EFD23
:105670008DF819009DF81B009DF81910401A00EBD9
:10568000D07040088DF818009DF81A0009304008C5
:105690008DF817009DF8180005380490FFE704986E
:1056A0009DF818109DF819201144053188421ADA26
:1056B000FFE7BDF810109DF817000A3882B240F6D7
:1056C0005000C2F20000019003F052FA0198BDF8B8
:1056D00010109DF81720033203F04AFAFFE70498F0
:1056E00002300490DBE79DF817000A380390FFE7CB
:1056F00003989DF81710033188421DDAFFE79DF8E3
:1057000018000538BDF80C2081B240F65000C2F2F6
:105710000000009003F02CFA00989DF818109DF8F6
:10572000192011440531BDF80C2003F021FAFFE7E0
:10573000039802300390DBE79DF818109DF81720BE
:10574000079B40F65000C2F2000003F087FC08B04F
:1057500080BD000080B586B040F65000C2F2000067
:10576000049090F844108DF8171090F846108DF8BA
:1057700016109DF817309DF816106A464FF0020C6F
:10578000CDF80CC0C2F804C011600022114603F02D
:1057900045FB04989DF8171002398BB20121029144
:1057A000092203F02BF8029904989DF81620073A75
:1057B0009DF81730023B92B29BB203F01FF8039A98
:1057C0000498114603F0D4F9039A04989DF8171031
:1057D000033989B203F0CCF9039904989DF8162097
:1057E000033A92B203F0C4F904989DF817100339F4
:1057F0009DF81620033A89B292B203F0B9F906B0C7
:1058000080BD000080B598B017901798FFF7CAFECA
:105810001690169838B9FFE74CF22C10C0F600002D
:10582000FFF70CFF67E140F65000C2F200004CF2B7
:105830009351C0F6000103F0FFFC1798406C1590DF
:10584000002014901390FFE71399179890F83C20CC
:1058500000209142079007DAFFE7149900200429FD
:10586000B8BF01200790FFE70798C007002800F0A5
:105870004281FFE71798139901F0BCF908B9FFE7D7
:1058800035E11598012804DBFFE7159801381590DC
:105890002DE114980B214843113012901398179959
:1058A000096C401AB0FA80F040098DF8470017984B
:1058B000139900EB8100406910909DF84700C007E4
:1058C000002850D0FFE7109890F84E00800700287D
:1058D00027D5FFE702200F90FFE70F9840F6500111
:1058E000C2F20001B1F844100239884218DAFFE729
:1058F000BDF83C101298083882B240F65000C2F24F
:105900000000069003F034F90698BDF83C10BDF88D
:10591000482003F02DF9FFE70F9802300F90DCE7E5
:1059200020E040F65000C2F20000059001210491F1
:1059300003F06CFC049B05981299A1F10802B0F8E1
:1059400044100439EC46CCF804300923CCF800307C
:1059500092B28BB2022103F045F90598002103F0C1
:1059600055FCFFE7FFE79DF84700C007C0B3FFE71E
:10597000109890F84E00800700280ED5FFE7BDF87C
:10598000482040F65000C2F200004CF27323C0F6EB
:105990000003042103F062FB21E010980079032842
:1059A0000ED1FFE7BDF8482040F65000C2F20000DB
:1059B0004CF2BD03C0F60003042103F04FFB0DE0E1
:1059C000BDF8482040F65000C2F200004CF2CF0370
:1059D000C0F60003042103F041FBFFE7FFE7FFE708
:1059E00010980068A8B1FFE71098016809A8039013
:1059F0001722FAF7CDFB039B00208DF83B00BDF882
:105A0000482040F65000C2F200000C2103F026FBB3
:105A1000FFE74CF2B220C0F600000890109890F812
:105A20004E004007002806D5FFE74CF2BF00C0F645
:105A30000000089030E0109890F83C00012806DB48
:105A4000FFE74CF2CF00C0F60000089023E010986A
:105A5000806830B1FFE74CF2CB00C0F60000089040
:105A600018E0109890F84C00012812DBFFE710981E
:105A70000079022806D1FFE74CF24E10C0F6000074
:105A8000089005E04CF2F500C0F600000890FFE732
:105A9000FFE7FFE7FFE7FFE70898FAF785FB70B13C
:105AA000FFE740F65000C2F20000B0F84410083999
:105AB000BDF84820089B89B203F0D0FAFFE79DF8B3
:105AC0004700C00778B1FFE7109890F84E008007B4
:105AD000002808D4FFE740F65000C2F20000012180
